{
  "transactions": [
    {
      "hash": "0xd2dc26292f29b71faea0ccbb0404a06044998a2704f84e9694fd7ce6e57f0f23",
      "transactionType": "CALL",
      "contractName": null,
      "contractAddress": "0x33Aa55F4C06DBC21dA52488B879769157A80c605",
      "function": "write(uint256,bytes32)",
      "arguments": [
        "73260345122573571097538219666442874894683432363450978443217705930984513990703",
        "0x00000000000000000000000085b0ec57a96b8b1fc48bf70d1fb9a6b4bac5c0df"
      ],
      "transaction": {
        "type": "0x02",
        "from": "0x85b0ec57a96b8b1fc48bf70d1fb9a6b4bac5c0df",
        "to": "0x33aa55f4c06dbc21da52488b879769157a80c605",
        "gas": "0xf126",
        "value": "0x0",
        "data": "0xd5614ab7a1f7e2cb4d240aea871e1b0e6f4bb7fd5b9570514d55dac1374df1c84489f02f00000000000000000000000085b0ec57a96b8b1fc48bf70d1fb9a6b4bac5c0df",
        "nonce": "0xb",
        "accessList": []
      },
      "additionalContracts": [],
      "isFixedGasLimit": false
    }
  ],
  "receipts": [],
  "libraries": [],
  "pending": [
    "0xd2dc26292f29b71faea0ccbb0404a06044998a2704f84e9694fd7ce6e57f0f23"
  ],
  "returns": {},
  "timestamp": 1707863872,
  "chain": 5,
  "multi": false,
  "commit": "88b09d0"
}