{
  "transactions": [
    {
      "hash": "0xd0f2d05910bcaa82a340444ab58efddb74e3f98d1d07cdf47b0a310ed2b22e22",
      "transactionType": "CALL",
      "contractName": null,
      "contractAddress": "0x5639A5bb6854553cC34b0a0F050f0AD64da265e8",
      "function": "write(uint256,bytes32)",
      "arguments": [
        "73260345122573571097538219666442874894683432363450978443217705930984513990703",
        "0x00000000000000000000000085b0ec57a96b8b1fc48bf70d1fb9a6b4bac5c0df"
      ],
      "transaction": {
        "type": "0x02",
        "from": "0x85b0ec57a96b8b1fc48bf70d1fb9a6b4bac5c0df",
        "to": "0x5639a5bb6854553cc34b0a0f050f0ad64da265e8",
        "gas": "0xf126",
        "value": "0x0",
        "data": "0xd5614ab7a1f7e2cb4d240aea871e1b0e6f4bb7fd5b9570514d55dac1374df1c84489f02f00000000000000000000000085b0ec57a96b8b1fc48bf70d1fb9a6b4bac5c0df",
        "nonce": "0xf",
        "accessList": []
      },
      "additionalContracts": [],
      "isFixedGasLimit": false
    }
  ],
  "receipts": [
    {
      "transactionHash": "0xd0f2d05910bcaa82a340444ab58efddb74e3f98d1d07cdf47b0a310ed2b22e22",
      "transactionIndex": "0x4",
      "blockHash": "0x941e0c2de2f4bcf1a1b376bd575038f2cdcb2695ecf17911bf917a9b6be3f94c",
      "blockNumber": "0xa0b8b4",
      "from": "0x85B0ec57a96b8B1fc48Bf70D1Fb9A6b4BAC5c0df",
      "to": "0x5639A5bb6854553cC34b0a0F050f0AD64da265e8",
      "cumulativeGasUsed": "0x3b9d5",
      "gasUsed": "0xae97",
      "contractAddress": null,
      "logs": [],
      "status": "0x1",
      "logsBloom": "0x00000000000000000000000000000000000000000000000000000000000000000000000000000000000000000000000000000000000000000000000000000000000000000000000000000000000000000000000000000000000000000000000000000000000000000000000000000000000000000000000000000000000000000000000000000000000000000000000000000000000000000000000000000000000000000000000000000000000000000000000000000000000000000000000000000000000000000000000000000000000000000000000000000000000000000000000000000000000000000000000000000000000000000000000000000000",
      "type": "0x2",
      "effectiveGasPrice": "0xb2d05e0a"
    }
  ],
  "libraries": [],
  "pending": [],
  "returns": {},
  "timestamp": 1707864145,
  "chain": 5,
  "multi": false,
  "commit": "88b09d0"
}