{
  "transactions": [
    {
      "hash": "0xc226de7e5d576cd1cb9a0720792ecda077ab15dd040e3001e738aee3f1f69750",
      "transactionType": "CALL",
      "contractName": null,
      "contractAddress": "0xad1E4a4e3E98b3E1a25B754F494719b382936c86",
      "function": "write(uint256,bytes32)",
      "arguments": [
        "73260345122573571097538219666442874894683432363450978443217705930984513990703",
        "0x00000000000000000000000085b0ec57a96b8b1fc48bf70d1fb9a6b4bac5c0df"
      ],
      "transaction": {
        "type": "0x02",
        "from": "0x85b0ec57a96b8b1fc48bf70d1fb9a6b4bac5c0df",
        "to": "0xad1e4a4e3e98b3e1a25b754f494719b382936c86",
        "gas": "0xf126",
        "value": "0x0",
        "data": "0xd5614ab7a1f7e2cb4d240aea871e1b0e6f4bb7fd5b9570514d55dac1374df1c84489f02f00000000000000000000000085b0ec57a96b8b1fc48bf70d1fb9a6b4bac5c0df",
        "nonce": "0xd",
        "accessList": []
      },
      "additionalContracts": [],
      "isFixedGasLimit": false
    }
  ],
  "receipts": [
    {
      "transactionHash": "0xc226de7e5d576cd1cb9a0720792ecda077ab15dd040e3001e738aee3f1f69750",
      "transactionIndex": "0x0",
      "blockHash": "0x55d690a868864adae1da38eea49db187b2469ce55f16fdc3384eacf01837e95e",
      "blockNumber": "0xa0b8ab",
      "from": "0x85B0ec57a96b8B1fc48Bf70D1Fb9A6b4BAC5c0df",
      "to": "0xad1E4a4e3E98b3E1a25B754F494719b382936c86",
      "cumulativeGasUsed": "0xae97",
      "gasUsed": "0xae97",
      "contractAddress": null,
      "logs": [],
      "status": "0x1",
      "logsBloom": "0x00000000000000000000000000000000000000000000000000000000000000000000000000000000000000000000000000000000000000000000000000000000000000000000000000000000000000000000000000000000000000000000000000000000000000000000000000000000000000000000000000000000000000000000000000000000000000000000000000000000000000000000000000000000000000000000000000000000000000000000000000000000000000000000000000000000000000000000000000000000000000000000000000000000000000000000000000000000000000000000000000000000000000000000000000000000",
      "type": "0x2",
      "effectiveGasPrice": "0xb2d05e0d"
    }
  ],
  "libraries": [],
  "pending": [],
  "returns": {},
  "timestamp": 1707864002,
  "chain": 5,
  "multi": false,
  "commit": "88b09d0"
}