{
  "transactions": [
    {
      "hash": "0x8d3ece572d95ec867c164dd1d6dbc7cb6acf440880bcf627af891e506e42fb78",
      "transactionType": "CALL",
      "contractName": null,
      "contractAddress": "0xea87ff48a4B376505022dB85E7E1abC1ea5Db9c5",
      "function": "climb(bytes32,uint64,uint16,uint32,uint32)",
      "arguments": [
        "0x474e34a077df58807dbe9c96d3c009b23b3c6d0cce433e59bbf5b34f823bc56c",
        "10352",
        "3",
        "500000",
        "8"
      ],
      "transaction": {
        "type": "0x02",
        "from": "0x85b0ec57a96b8b1fc48bf70d1fb9a6b4bac5c0df",
        "to": "0xea87ff48a4b376505022db85e7e1abc1ea5db9c5",
        "gas": "0x16e52",
        "value": "0x0",
        "data": "0xca9047e6474e34a077df58807dbe9c96d3c009b23b3c6d0cce433e59bbf5b34f823bc56c00000000000000000000000000000000000000000000000000000000000028700000000000000000000000000000000000000000000000000000000000000003000000000000000000000000000000000000000000000000000000000007a1200000000000000000000000000000000000000000000000000000000000000008",
        "nonce": "0x33",
        "accessList": []
      },
      "additionalContracts": [],
      "isFixedGasLimit": false
    }
  ],
  "receipts": [
    {
      "transactionHash": "0x8d3ece572d95ec867c164dd1d6dbc7cb6acf440880bcf627af891e506e42fb78",
      "transactionIndex": "0x2",
      "blockHash": "0x5400b4317d3738f3e826ef85c5030be1ac2bd6f479ab95d0401fce21a913a7db",
      "blockNumber": "0x543bbb",
      "from": "0x85B0ec57a96b8B1fc48Bf70D1Fb9A6b4BAC5c0df",
      "to": "0xea87ff48a4B376505022dB85E7E1abC1ea5Db9c5",
      "cumulativeGasUsed": "0x2e365",
      "gasUsed": "0xfa7a",
      "contractAddress": null,
      "logs": [
        {
          "address": "0x8103B0A8A00be2DDC778e6e7eaa21791Cd364625",
          "topics": [
            "0x63373d1c4696214b898952999c9aaec57dac1ee2723cec59bea6888f489a9772",
            "0x474e34a077df58807dbe9c96d3c009b23b3c6d0cce433e59bbf5b34f823bc56c",
            "0x0000000000000000000000000000000000000000000000000000000000002870",
            "0x000000000000000000000000ea87ff48a4b376505022db85e7e1abc1ea5db9c5"
          ],
          "data": "0x562fa48def7da84bebd588a7dd7865d030cc7caa5da7161e581d5d5812af6162bb03c9626e43833f7a44c0fe2f3073b1a2574a8b930054819fa4407bb446eef60000000000000000000000000000000000000000000000000000000000000003000000000000000000000000000000000000000000000000000000000007a1200000000000000000000000000000000000000000000000000000000000000008",
          "blockHash": "0x5400b4317d3738f3e826ef85c5030be1ac2bd6f479ab95d0401fce21a913a7db",
          "blockNumber": "0x543bbb",
          "transactionHash": "0x8d3ece572d95ec867c164dd1d6dbc7cb6acf440880bcf627af891e506e42fb78",
          "transactionIndex": "0x2",
          "logIndex": "0x3",
          "removed": false
        }
      ],
      "status": "0x1",
      "logsBloom": "0x0200000000000800400000000000000000000000000000000000000000000000000000000000000000000000000000000000000000000000000000004000000000000000000000000000000000000000000000000000000000000000080000000000200000000000000800000000000000000000000100000000000000000000000000000c000020000000000000000000000000000000000000000000000000000000000000000000000000000000000000000000000000000000000000000000000000000000000000000000000000000000000040000000000000000000000008000000000000000100000000000000000080000000000000000000000000",
      "type": "0x2",
      "effectiveGasPrice": "0xb78f43e0"
    }
  ],
  "libraries": [],
  "pending": [],
  "returns": {},
  "timestamp": 1710887587,
  "chain": 11155111,
  "multi": false,
  "commit": "393c740"
}