{
  "transactions": [
    {
      "hash": "0x85b1705b92a19091f93e254fda746c0b819239cd2b3b1c132b65611f196f57f5",
      "transactionType": "CALL",
      "contractName": null,
      "contractAddress": "0xea87ff48a4B376505022dB85E7E1abC1ea5Db9c5",
      "function": "climb(bytes32,uint64,uint16,uint32,uint32)",
      "arguments": [
        "0x474e34a077df58807dbe9c96d3c009b23b3c6d0cce433e59bbf5b34f823bc56c",
        "10352",
        "3",
        "5000",
        "8"
      ],
      "transaction": {
        "type": "0x02",
        "from": "0x85b0ec57a96b8b1fc48bf70d1fb9a6b4bac5c0df",
        "to": "0xea87ff48a4b376505022db85e7e1abc1ea5db9c5",
        "gas": "0x159e6",
        "value": "0x0",
        "data": "0xca9047e6474e34a077df58807dbe9c96d3c009b23b3c6d0cce433e59bbf5b34f823bc56c0000000000000000000000000000000000000000000000000000000000002870000000000000000000000000000000000000000000000000000000000000000300000000000000000000000000000000000000000000000000000000000013880000000000000000000000000000000000000000000000000000000000000008",
        "nonce": "0x32",
        "accessList": []
      },
      "additionalContracts": [],
      "isFixedGasLimit": false
    }
  ],
  "receipts": [],
  "libraries": [],
  "pending": [
    "0x85b1705b92a19091f93e254fda746c0b819239cd2b3b1c132b65611f196f57f5"
  ],
  "returns": {},
  "timestamp": 1710887242,
  "chain": 11155111,
  "multi": false,
  "commit": "393c740"
}