{
  "transactions": [
    {
      "hash": "0x4d350d34ca2cb58620a954f5806bc35ed420aec8ac91044a8e0023bd590f3308",
      "transactionType": "CALL",
      "contractName": null,
      "contractAddress": "0xea87ff48a4B376505022dB85E7E1abC1ea5Db9c5",
      "function": "climb(bytes32,uint64,uint16,uint32,uint32)",
      "arguments": [
        "0x474e34a077df58807dbe9c96d3c009b23b3c6d0cce433e59bbf5b34f823bc56c",
        "10352",
        "3",
        "200",
        "8"
      ],
      "transaction": {
        "type": "0x02",
        "from": "0x85b0ec57a96b8b1fc48bf70d1fb9a6b4bac5c0df",
        "to": "0xea87ff48a4b376505022db85e7e1abc1ea5db9c5",
        "gas": "0x16e2f",
        "value": "0x0",
        "data": "0xca9047e6474e34a077df58807dbe9c96d3c009b23b3c6d0cce433e59bbf5b34f823bc56c0000000000000000000000000000000000000000000000000000000000002870000000000000000000000000000000000000000000000000000000000000000300000000000000000000000000000000000000000000000000000000000000c80000000000000000000000000000000000000000000000000000000000000008",
        "nonce": "0x30",
        "accessList": []
      },
      "additionalContracts": [],
      "isFixedGasLimit": false
    }
  ],
  "receipts": [],
  "libraries": [],
  "pending": [
    "0x4d350d34ca2cb58620a954f5806bc35ed420aec8ac91044a8e0023bd590f3308"
  ],
  "returns": {},
  "timestamp": 1710880153,
  "chain": 11155111,
  "multi": false,
  "commit": "393c740"
}