{
  "transactions": [
    {
      "hash": "0x85b1705b92a19091f93e254fda746c0b819239cd2b3b1c132b65611f196f57f5",
      "transactionType": "CALL",
      "contractName": null,
      "contractAddress": "0xea87ff48a4B376505022dB85E7E1abC1ea5Db9c5",
      "function": "climb(bytes32,uint64,uint16,uint32,uint32)",
      "arguments": [
        "0x474e34a077df58807dbe9c96d3c009b23b3c6d0cce433e59bbf5b34f823bc56c",
        "10352",
        "3",
        "5000",
        "8"
      ],
      "transaction": {
        "type": "0x02",
        "from": "0x85b0ec57a96b8b1fc48bf70d1fb9a6b4bac5c0df",
        "to": "0xea87ff48a4b376505022db85e7e1abc1ea5db9c5",
        "gas": "0x159e6",
        "value": "0x0",
        "data": "0xca9047e6474e34a077df58807dbe9c96d3c009b23b3c6d0cce433e59bbf5b34f823bc56c0000000000000000000000000000000000000000000000000000000000002870000000000000000000000000000000000000000000000000000000000000000300000000000000000000000000000000000000000000000000000000000013880000000000000000000000000000000000000000000000000000000000000008",
        "nonce": "0x32",
        "accessList": []
      },
      "additionalContracts": [],
      "isFixedGasLimit": false
    }
  ],
  "receipts": [
    {
      "transactionHash": "0x85b1705b92a19091f93e254fda746c0b819239cd2b3b1c132b65611f196f57f5",
      "transactionIndex": "0x7",
      "blockHash": "0x5ecf4ecbeca3604978f11c632600fc67cb5aea81bd8fd8fd2e9642aaf7580cf2",
      "blockNumber": "0x543ba0",
      "from": "0x85B0ec57a96b8B1fc48Bf70D1Fb9A6b4BAC5c0df",
      "to": "0xea87ff48a4B376505022dB85E7E1abC1ea5Db9c5",
      "cumulativeGasUsed": "0x5738f",
      "gasUsed": "0xfa6e",
      "contractAddress": null,
      "logs": [
        {
          "address": "0x8103B0A8A00be2DDC778e6e7eaa21791Cd364625",
          "topics": [
            "0x63373d1c4696214b898952999c9aaec57dac1ee2723cec59bea6888f489a9772",
            "0x474e34a077df58807dbe9c96d3c009b23b3c6d0cce433e59bbf5b34f823bc56c",
            "0x0000000000000000000000000000000000000000000000000000000000002870",
            "0x000000000000000000000000ea87ff48a4b376505022db85e7e1abc1ea5db9c5"
          ],
          "data": "0x7dc896c953b2d90f9a317e545a6932a0595a3409dcb00e972d54baf5271631b1420bd7daa9fe0fefd9c3b49ecfc327ad5d2a753ba4ab5c9635d93995177ff895000000000000000000000000000000000000000000000000000000000000000300000000000000000000000000000000000000000000000000000000000013880000000000000000000000000000000000000000000000000000000000000008",
          "blockHash": "0x5ecf4ecbeca3604978f11c632600fc67cb5aea81bd8fd8fd2e9642aaf7580cf2",
          "blockNumber": "0x543ba0",
          "transactionHash": "0x85b1705b92a19091f93e254fda746c0b819239cd2b3b1c132b65611f196f57f5",
          "transactionIndex": "0x7",
          "logIndex": "0x3",
          "removed": false
        }
      ],
      "status": "0x1",
      "logsBloom": "0x0200000000000800400000000000000000000000000000000000000000000000000000000000000000000000000000000000000000000000000000004000000000000000000000000000000000000000000000000000000000000000080000000000200000000000000800000000000000000000000100000000000000000000000000000c000020000000000000000000000000000000000000000000000000000000000000000000000000000000000000000000000000000000000000000000000000000000000000000000000000000000000040000000000000000000000008000000000000000100000000000000000080000000000000000000000000",
      "type": "0x2",
      "effectiveGasPrice": "0xb9177d77"
    }
  ],
  "libraries": [],
  "pending": [],
  "returns": {},
  "timestamp": 1710887249,
  "chain": 11155111,
  "multi": false,
  "commit": "393c740"
}