{
  "transactions": [
    {
      "hash": "0x4d350d34ca2cb58620a954f5806bc35ed420aec8ac91044a8e0023bd590f3308",
      "transactionType": "CALL",
      "contractName": null,
      "contractAddress": "0xea87ff48a4B376505022dB85E7E1abC1ea5Db9c5",
      "function": "climb(bytes32,uint64,uint16,uint32,uint32)",
      "arguments": [
        "0x474e34a077df58807dbe9c96d3c009b23b3c6d0cce433e59bbf5b34f823bc56c",
        "10352",
        "3",
        "200",
        "8"
      ],
      "transaction": {
        "type": "0x02",
        "from": "0x85b0ec57a96b8b1fc48bf70d1fb9a6b4bac5c0df",
        "to": "0xea87ff48a4b376505022db85e7e1abc1ea5db9c5",
        "gas": "0x16e2f",
        "value": "0x0",
        "data": "0xca9047e6474e34a077df58807dbe9c96d3c009b23b3c6d0cce433e59bbf5b34f823bc56c0000000000000000000000000000000000000000000000000000000000002870000000000000000000000000000000000000000000000000000000000000000300000000000000000000000000000000000000000000000000000000000000c80000000000000000000000000000000000000000000000000000000000000008",
        "nonce": "0x30",
        "accessList": []
      },
      "additionalContracts": [],
      "isFixedGasLimit": false
    }
  ],
  "receipts": [
    {
      "transactionHash": "0x4d350d34ca2cb58620a954f5806bc35ed420aec8ac91044a8e0023bd590f3308",
      "transactionIndex": "0x17",
      "blockHash": "0x95755a64d14b9402f1ab22eb789c3836689136b86f5f0044a025342ead0b2815",
      "blockNumber": "0x543986",
      "from": "0x85B0ec57a96b8B1fc48Bf70D1Fb9A6b4BAC5c0df",
      "to": "0xea87ff48a4B376505022dB85E7E1abC1ea5Db9c5",
      "cumulativeGasUsed": "0xa7c57",
      "gasUsed": "0xfa62",
      "contractAddress": null,
      "logs": [
        {
          "address": "0x8103B0A8A00be2DDC778e6e7eaa21791Cd364625",
          "topics": [
            "0x63373d1c4696214b898952999c9aaec57dac1ee2723cec59bea6888f489a9772",
            "0x474e34a077df58807dbe9c96d3c009b23b3c6d0cce433e59bbf5b34f823bc56c",
            "0x0000000000000000000000000000000000000000000000000000000000002870",
            "0x000000000000000000000000ea87ff48a4b376505022db85e7e1abc1ea5db9c5"
          ],
          "data": "0xb7aec296532d569e97c705d0637b3dd956f80fa391a26f99b38a19ea618a4ec2c7a5d92243dbad2a3324e182180cbe8a55cfecd8084baf89f859b12b3f57d31c000000000000000000000000000000000000000000000000000000000000000300000000000000000000000000000000000000000000000000000000000000c80000000000000000000000000000000000000000000000000000000000000008",
          "blockHash": "0x95755a64d14b9402f1ab22eb789c3836689136b86f5f0044a025342ead0b2815",
          "blockNumber": "0x543986",
          "transactionHash": "0x4d350d34ca2cb58620a954f5806bc35ed420aec8ac91044a8e0023bd590f3308",
          "transactionIndex": "0x17",
          "logIndex": "0x3",
          "removed": false
        }
      ],
      "status": "0x1",
      "logsBloom": "0x0200000000000800400000000000000000000000000000000000000000000000000000000000000000000000000000000000000000000000000000004000000000000000000000000000000000000000000000000000000000000000080000000000200000000000000800000000000000000000000100000000000000000000000000000c000020000000000000000000000000000000000000000000000000000000000000000000000000000000000000000000000000000000000000000000000000000000000000000000000000000000000040000000000000000000000008000000000000000100000000000000000080000000000000000000000000",
      "type": "0x2",
      "effectiveGasPrice": "0xb8ba4818"
    }
  ],
  "libraries": [],
  "pending": [],
  "returns": {},
  "timestamp": 1710880171,
  "chain": 11155111,
  "multi": false,
  "commit": "393c740"
}