{
  "transactions": [
    {
      "hash": "0x5c35beaf8c84c69dc0110a95d027f3ee47abc70c98542315443efcce934f5ddb",
      "transactionType": "CALL",
      "contractName": null,
      "contractAddress": "0xB00dd1bcbEa4213E920300F1b85fCD6C4414dFB6",
      "function": "predict(bytes32)",
      "arguments": [
        "0x201d5ffafd37c70b411d9ddb986c774d8e50cd142c41ce3a89912eb4000456da"
      ],
      "transaction": {
        "type": "0x02",
        "from": "0x85b0ec57a96b8b1fc48bf70d1fb9a6b4bac5c0df",
        "to": "0xb00dd1bcbea4213e920300f1b85fcd6c4414dfb6",
        "gas": "0xefb6",
        "value": "0x0",
        "data": "0x0e787cce201d5ffafd37c70b411d9ddb986c774d8e50cd142c41ce3a89912eb4000456da",
        "nonce": "0x21",
        "accessList": []
      },
      "additionalContracts": [],
      "isFixedGasLimit": false
    }
  ],
  "receipts": [],
  "libraries": [],
  "pending": [],
  "returns": {},
  "timestamp": 1709993140,
  "chain": 11155111,
  "multi": false,
  "commit": "b6cf3ff"
}