{
  "transactions": [
    {
      "hash": "0x92e884db96bfe2a8f9723fe7a6cdf97b10651a2b9b0fc1ce5bde6fdab103effa",
      "transactionType": "CALL",
      "contractName": null,
      "contractAddress": "0x0d7B4CA30D19B1B3062Ee251A5081f7B5a47481d",
      "function": "predict(address)",
      "arguments": [
        "0x50DD8869BcA4EF808F712B07E94EfEF99AB20CA9"
      ],
      "transaction": {
        "type": "0x02",
        "from": "0x85b0ec57a96b8b1fc48bf70d1fb9a6b4bac5c0df",
        "to": "0x0d7b4ca30d19b1b3062ee251a5081f7b5a47481d",
        "gas": "0x100a2",
        "value": "0x0",
        "data": "0x901b96e700000000000000000000000050dd8869bca4ef808f712b07e94efef99ab20ca9",
        "nonce": "0x27",
        "accessList": []
      },
      "additionalContracts": [],
      "isFixedGasLimit": false
    }
  ],
  "receipts": [
    {
      "transactionHash": "0x92e884db96bfe2a8f9723fe7a6cdf97b10651a2b9b0fc1ce5bde6fdab103effa",
      "transactionIndex": "0x10",
      "blockHash": "0xe813b96736bd0e3507be8873dadba7899ad6b80fdee858b6a3d29dd5b03de4ea",
      "blockNumber": "0x5437af",
      "from": "0x85B0ec57a96b8B1fc48Bf70D1Fb9A6b4BAC5c0df",
      "to": "0x0d7B4CA30D19B1B3062Ee251A5081f7B5a47481d",
      "cumulativeGasUsed": "0xb0594",
      "gasUsed": "0xb9cd",
      "contractAddress": null,
      "logs": [],
      "status": "0x1",
      "logsBloom": "0x00000000000000000000000000000000000000000000000000000000000000000000000000000000000000000000000000000000000000000000000000000000000000000000000000000000000000000000000000000000000000000000000000000000000000000000000000000000000000000000000000000000000000000000000000000000000000000000000000000000000000000000000000000000000000000000000000000000000000000000000000000000000000000000000000000000000000000000000000000000000000000000000000000000000000000000000000000000000000000000000000000000000000000000000000000000",
      "type": "0x2",
      "effectiveGasPrice": "0xc62ebb0e"
    }
  ],
  "libraries": [],
  "pending": [],
  "returns": {},
  "timestamp": 1710873795,
  "chain": 11155111,
  "multi": false,
  "commit": "d8cb694"
}