{
  "transactions": [
    {
      "hash": null,
      "transactionType": "CALL",
      "contractName": null,
      "contractAddress": "0xB00dd1bcbEa4213E920300F1b85fCD6C4414dFB6",
      "function": "predict(bytes32)",
      "arguments": [
        "0x4b79d2dd68036555a3178a4b7be7ba98548ed837e8dcb3b119b4160a6cf42bcd"
      ],
      "transaction": {
        "type": "0x02",
        "from": "0x85b0ec57a96b8b1fc48bf70d1fb9a6b4bac5c0df",
        "to": "0xb00dd1bcbea4213e920300f1b85fcd6c4414dfb6",
        "gas": "0xfde2",
        "value": "0x0",
        "data": "0x0e787cce4b79d2dd68036555a3178a4b7be7ba98548ed837e8dcb3b119b4160a6cf42bcd",
        "nonce": "0x21",
        "accessList": []
      },
      "additionalContracts": [],
      "isFixedGasLimit": false
    }
  ],
  "receipts": [],
  "libraries": [],
  "pending": [],
  "returns": {},
  "timestamp": 1709993058,
  "chain": 11155111,
  "multi": false,
  "commit": "b6cf3ff"
}