{
  "transactions": [
    {
      "hash": "0x76574e2e85b961d7d5aa8544d44dfad8c0ac0eba150904bef8c4778f102f30ff",
      "transactionType": "CALL",
      "contractName": null,
      "contractAddress": "0xD2bcf10226aDF482370d574D8bDeb1263af717a8",
      "function": "write(uint256,bytes32)",
      "arguments": [
        "9",
        "0x00000000000000000000000085b0ec57a96b8b1fc48bf70d1fb9a6b4bac5c0df"
      ],
      "transaction": {
        "type": "0x02",
        "from": "0x85b0ec57a96b8b1fc48bf70d1fb9a6b4bac5c0df",
        "to": "0xd2bcf10226adf482370d574d8bdeb1263af717a8",
        "gas": "0xfd35",
        "value": "0x0",
        "data": "0xd5614ab7000000000000000000000000000000000000000000000000000000000000000900000000000000000000000085b0ec57a96b8b1fc48bf70d1fb9a6b4bac5c0df",
        "nonce": "0xe",
        "accessList": []
      },
      "additionalContracts": [],
      "isFixedGasLimit": false
    }
  ],
  "receipts": [],
  "libraries": [],
  "pending": [
    "0x76574e2e85b961d7d5aa8544d44dfad8c0ac0eba150904bef8c4778f102f30ff"
  ],
  "returns": {},
  "timestamp": 1707911530,
  "chain": 11155111,
  "multi": false,
  "commit": "88b09d0"
}