{
  "transactions": [
    {
      "hash": "0x30ef91c5ff19d7b9959c42f5d9f1ef7d8959349e667aa0d97c623d883316bb3c",
      "transactionType": "CALL",
      "contractName": null,
      "contractAddress": "0x1BaA53100f07AeAE15B735203734765Cfa244EfD",
      "function": "write(uint256,bytes32)",
      "arguments": [
        "9",
        "0x00000000000000000000000085b0ec57a96b8b1fc48bf70d1fb9a6b4bac5c0df"
      ],
      "transaction": {
        "type": "0x02",
        "from": "0x85b0ec57a96b8b1fc48bf70d1fb9a6b4bac5c0df",
        "to": "0x1baa53100f07aeae15b735203734765cfa244efd",
        "gas": "0xfd35",
        "value": "0x0",
        "data": "0xd5614ab7000000000000000000000000000000000000000000000000000000000000000900000000000000000000000085b0ec57a96b8b1fc48bf70d1fb9a6b4bac5c0df",
        "nonce": "0x1f",
        "accessList": []
      },
      "additionalContracts": [],
      "isFixedGasLimit": false
    }
  ],
  "receipts": [],
  "libraries": [],
  "pending": [
    "0x30ef91c5ff19d7b9959c42f5d9f1ef7d8959349e667aa0d97c623d883316bb3c"
  ],
  "returns": {},
  "timestamp": 1708111340,
  "chain": 11155111,
  "multi": false,
  "commit": "05c6a15"
}