{
  "transactions": [
    {
      "hash": "0xc5b7203e863830787163279a23d75eeb386231ec2e11644fb6cc9713e27d60c4",
      "transactionType": "CALL",
      "contractName": null,
      "contractAddress": "0x189628B9f790D9E519Fb0D302aDA2949786983d7",
      "function": "write(uint256,bytes32)",
      "arguments": [
        "43011072408929153488662136469479687271575506367630533324124478827965394967864",
        "0x00000000000000000000000085b0ec57a96b8b1fc48bf70d1fb9a6b4bac5c0df"
      ],
      "transaction": {
        "type": "0x02",
        "from": "0x85b0ec57a96b8b1fc48bf70d1fb9a6b4bac5c0df",
        "to": "0x189628b9f790d9e519fb0d302ada2949786983d7",
        "gas": "0xf126",
        "value": "0x0",
        "data": "0xd5614ab75f17677f44c4522b49c6271b920a2e91292ec33fe7479e1488b2e89b1dd3dd3800000000000000000000000085b0ec57a96b8b1fc48bf70d1fb9a6b4bac5c0df",
        "nonce": "0x2",
        "accessList": []
      },
      "additionalContracts": [],
      "isFixedGasLimit": false
    }
  ],
  "receipts": [],
  "libraries": [],
  "pending": [
    "0xc5b7203e863830787163279a23d75eeb386231ec2e11644fb6cc9713e27d60c4"
  ],
  "returns": {},
  "timestamp": 1707864882,
  "chain": 11155111,
  "multi": false,
  "commit": "88b09d0"
}