{
  "transactions": [
    {
      "hash": "0xd20f656f19f91e32864f1466d534b801f30f0ecf37eb0047896b499b12344eab",
      "transactionType": "CALL",
      "contractName": null,
      "contractAddress": "0x5B984A0E8bFEDEf2E7dEfA555Df56ac955BFfeEd",
      "function": "write(uint256,bytes32)",
      "arguments": [
        "73260345122573571097538219666442874894683432363450978443217705930984513990703",
        "0x00000000000000000000000085b0ec57a96b8b1fc48bf70d1fb9a6b4bac5c0df"
      ],
      "transaction": {
        "type": "0x02",
        "from": "0x85b0ec57a96b8b1fc48bf70d1fb9a6b4bac5c0df",
        "to": "0x5b984a0e8bfedef2e7defa555df56ac955bffeed",
        "gas": "0xf126",
        "value": "0x0",
        "data": "0xd5614ab7a1f7e2cb4d240aea871e1b0e6f4bb7fd5b9570514d55dac1374df1c84489f02f00000000000000000000000085b0ec57a96b8b1fc48bf70d1fb9a6b4bac5c0df",
        "nonce": "0x10",
        "accessList": []
      },
      "additionalContracts": [],
      "isFixedGasLimit": false
    }
  ],
  "receipts": [],
  "libraries": [],
  "pending": [
    "0xd20f656f19f91e32864f1466d534b801f30f0ecf37eb0047896b499b12344eab"
  ],
  "returns": {},
  "timestamp": 1707931975,
  "chain": 11155111,
  "multi": false,
  "commit": "4ed5d68"
}