{
  "transactions": [
    {
      "hash": "0x622b54ff84d8c33aed4116ccf61ecb644f06731780a0b7ae4a7bb0f8348bda94",
      "transactionType": "CALL",
      "contractName": null,
      "contractAddress": "0x1BaA53100f07AeAE15B735203734765Cfa244EfD",
      "function": "write(uint256,bytes32)",
      "arguments": [
        "73260345122573571097538219666442874894683432363450978443217705930984513990703",
        "0x00000000000000000000000085b0ec57a96b8b1fc48bf70d1fb9a6b4bac5c0df"
      ],
      "transaction": {
        "type": "0x02",
        "from": "0x85b0ec57a96b8b1fc48bf70d1fb9a6b4bac5c0df",
        "to": "0x1baa53100f07aeae15b735203734765cfa244efd",
        "gas": "0xf126",
        "value": "0x0",
        "data": "0xd5614ab7a1f7e2cb4d240aea871e1b0e6f4bb7fd5b9570514d55dac1374df1c84489f02f00000000000000000000000085b0ec57a96b8b1fc48bf70d1fb9a6b4bac5c0df",
        "nonce": "0x1e",
        "accessList": []
      },
      "additionalContracts": [],
      "isFixedGasLimit": false
    }
  ],
  "receipts": [],
  "libraries": [],
  "pending": [
    "0x622b54ff84d8c33aed4116ccf61ecb644f06731780a0b7ae4a7bb0f8348bda94"
  ],
  "returns": {},
  "timestamp": 1708111271,
  "chain": 11155111,
  "multi": false,
  "commit": "05c6a15"
}