{
  "transactions": [
    {
      "hash": "0x33a2edad5c59daedc2d31a21e04b446af6ed05eb8bf116a6d123e669f800f6e5",
      "transactionType": "CALL",
      "contractName": null,
      "contractAddress": "0x5B984A0E8bFEDEf2E7dEfA555Df56ac955BFfeEd",
      "function": "write(uint256,bytes32)",
      "arguments": [
        "73260345122573571097538219666442874894683432363450978443217705930984513990703",
        "0x00000000000000000000000085b0ec57a96b8b1fc48bf70d1fb9a6b4bac5c0df"
      ],
      "transaction": {
        "type": "0x02",
        "from": "0x85b0ec57a96b8b1fc48bf70d1fb9a6b4bac5c0df",
        "to": "0x5b984a0e8bfedef2e7defa555df56ac955bffeed",
        "gas": "0x8da6",
        "value": "0x0",
        "data": "0xd5614ab7a1f7e2cb4d240aea871e1b0e6f4bb7fd5b9570514d55dac1374df1c84489f02f00000000000000000000000085b0ec57a96b8b1fc48bf70d1fb9a6b4bac5c0df",
        "nonce": "0x14",
        "accessList": []
      },
      "additionalContracts": [],
      "isFixedGasLimit": false
    }
  ],
  "receipts": [
    {
      "transactionHash": "0x33a2edad5c59daedc2d31a21e04b446af6ed05eb8bf116a6d123e669f800f6e5",
      "transactionIndex": "0x20",
      "blockHash": "0x7d35739750b5cc489ce3ca46964fe107485975a73ddc14f374b293fc52296821",
      "blockNumber": "0x50b221",
      "from": "0x85B0ec57a96b8B1fc48Bf70D1Fb9A6b4BAC5c0df",
      "to": "0x5B984A0E8bFEDEf2E7dEfA555Df56ac955BFfeEd",
      "cumulativeGasUsed": "0x408b3b",
      "gasUsed": "0x60db",
      "contractAddress": null,
      "logs": [],
      "status": "0x1",
      "logsBloom": "0x00000000000000000000000000000000000000000000000000000000000000000000000000000000000000000000000000000000000000000000000000000000000000000000000000000000000000000000000000000000000000000000000000000000000000000000000000000000000000000000000000000000000000000000000000000000000000000000000000000000000000000000000000000000000000000000000000000000000000000000000000000000000000000000000000000000000000000000000000000000000000000000000000000000000000000000000000000000000000000000000000000000000000000000000000000000",
      "type": "0x2",
      "effectiveGasPrice": "0xb8c5d517"
    }
  ],
  "libraries": [],
  "pending": [],
  "returns": {},
  "timestamp": 1707932627,
  "chain": 11155111,
  "multi": false,
  "commit": "4ed5d68"
}