{
  "transactions": [
    {
      "hash": "0xa078de87a3eb49165ffd9c9be0b17e6a7ecc1940d4f1e70379064d1e235eb770",
      "transactionType": "CALL",
      "contractName": null,
      "contractAddress": "0xDa6DD6ECD7A42542Fc7acCFF72A1b39b84DC6F0D",
      "function": "write(uint256,bytes32)",
      "arguments": [
        "9",
        "0x00000000000000000000000085b0ec57a96b8b1fc48bf70d1fb9a6b4bac5c0df"
      ],
      "transaction": {
        "type": "0x02",
        "from": "0x85b0ec57a96b8b1fc48bf70d1fb9a6b4bac5c0df",
        "to": "0xda6dd6ecd7a42542fc7accff72a1b39b84dc6f0d",
        "gas": "0xfd35",
        "value": "0x0",
        "data": "0xd5614ab7000000000000000000000000000000000000000000000000000000000000000900000000000000000000000085b0ec57a96b8b1fc48bf70d1fb9a6b4bac5c0df",
        "nonce": "0x6",
        "accessList": []
      },
      "additionalContracts": [],
      "isFixedGasLimit": false
    }
  ],
  "receipts": [],
  "libraries": [],
  "pending": [
    "0xa078de87a3eb49165ffd9c9be0b17e6a7ecc1940d4f1e70379064d1e235eb770"
  ],
  "returns": {},
  "timestamp": 1707865697,
  "chain": 11155111,
  "multi": false,
  "commit": "88b09d0"
}