{
  "transactions": [
    {
      "hash": "0x79993a3c7066936d16fffe36508bf4b04acf8603003ffa210cc0ee0566538371",
      "transactionType": "CALL",
      "contractName": null,
      "contractAddress": "0x189628B9f790D9E519Fb0D302aDA2949786983d7",
      "function": "write(uint256,bytes32)",
      "arguments": [
        "9",
        "0x00000000000000000000000085b0ec57a96b8b1fc48bf70d1fb9a6b4bac5c0df"
      ],
      "transaction": {
        "type": "0x02",
        "from": "0x85b0ec57a96b8b1fc48bf70d1fb9a6b4bac5c0df",
        "to": "0x189628b9f790d9e519fb0d302ada2949786983d7",
        "gas": "0xfd35",
        "value": "0x0",
        "data": "0xd5614ab7000000000000000000000000000000000000000000000000000000000000000900000000000000000000000085b0ec57a96b8b1fc48bf70d1fb9a6b4bac5c0df",
        "nonce": "0x4",
        "accessList": []
      },
      "additionalContracts": [],
      "isFixedGasLimit": false
    }
  ],
  "receipts": [
    {
      "transactionHash": "0x79993a3c7066936d16fffe36508bf4b04acf8603003ffa210cc0ee0566538371",
      "transactionIndex": "0x45",
      "blockHash": "0x51655297a3d8e197ebbb33113fa9f967531fb41f91cce02d608e13cc097e9200",
      "blockNumber": "0x509c60",
      "from": "0x85B0ec57a96b8B1fc48Bf70D1Fb9A6b4BAC5c0df",
      "to": "0x189628B9f790D9E519Fb0D302aDA2949786983d7",
      "cumulativeGasUsed": "0x673491",
      "gasUsed": "0xad23",
      "contractAddress": null,
      "logs": [],
      "status": "0x1",
      "logsBloom": "0x00000000000000000000000000000000000000000000000000000000000000000000000000000000000000000000000000000000000000000000000000000000000000000000000000000000000000000000000000000000000000000000000000000000000000000000000000000000000000000000000000000000000000000000000000000000000000000000000000000000000000000000000000000000000000000000000000000000000000000000000000000000000000000000000000000000000000000000000000000000000000000000000000000000000000000000000000000000000000000000000000000000000000000000000000000000",
      "type": "0x2",
      "effectiveGasPrice": "0xb64bf2b1d"
    }
  ],
  "libraries": [],
  "pending": [],
  "returns": {},
  "timestamp": 1707865611,
  "chain": 11155111,
  "multi": false,
  "commit": "88b09d0"
}