{
  "transactions": [
    {
      "hash": "0x622b54ff84d8c33aed4116ccf61ecb644f06731780a0b7ae4a7bb0f8348bda94",
      "transactionType": "CALL",
      "contractName": null,
      "contractAddress": "0x1BaA53100f07AeAE15B735203734765Cfa244EfD",
      "function": "write(uint256,bytes32)",
      "arguments": [
        "73260345122573571097538219666442874894683432363450978443217705930984513990703",
        "0x00000000000000000000000085b0ec57a96b8b1fc48bf70d1fb9a6b4bac5c0df"
      ],
      "transaction": {
        "type": "0x02",
        "from": "0x85b0ec57a96b8b1fc48bf70d1fb9a6b4bac5c0df",
        "to": "0x1baa53100f07aeae15b735203734765cfa244efd",
        "gas": "0xf126",
        "value": "0x0",
        "data": "0xd5614ab7a1f7e2cb4d240aea871e1b0e6f4bb7fd5b9570514d55dac1374df1c84489f02f00000000000000000000000085b0ec57a96b8b1fc48bf70d1fb9a6b4bac5c0df",
        "nonce": "0x1e",
        "accessList": []
      },
      "additionalContracts": [],
      "isFixedGasLimit": false
    }
  ],
  "receipts": [
    {
      "transactionHash": "0x622b54ff84d8c33aed4116ccf61ecb644f06731780a0b7ae4a7bb0f8348bda94",
      "transactionIndex": "0x1e",
      "blockHash": "0xad444ea9fd118f4117202502de1b5f36ab8fd5713b731571dc36c0d89b04e38b",
      "blockNumber": "0x50e93e",
      "from": "0x85B0ec57a96b8B1fc48Bf70D1Fb9A6b4BAC5c0df",
      "to": "0x1BaA53100f07AeAE15B735203734765Cfa244EfD",
      "cumulativeGasUsed": "0x326029",
      "gasUsed": "0xae97",
      "contractAddress": null,
      "logs": [],
      "status": "0x1",
      "logsBloom": "0x00000000000000000000000000000000000000000000000000000000000000000000000000000000000000000000000000000000000000000000000000000000000000000000000000000000000000000000000000000000000000000000000000000000000000000000000000000000000000000000000000000000000000000000000000000000000000000000000000000000000000000000000000000000000000000000000000000000000000000000000000000000000000000000000000000000000000000000000000000000000000000000000000000000000000000000000000000000000000000000000000000000000000000000000000000000",
      "type": "0x2",
      "effectiveGasPrice": "0x19d7f2404"
    }
  ],
  "libraries": [],
  "pending": [],
  "returns": {},
  "timestamp": 1708111278,
  "chain": 11155111,
  "multi": false,
  "commit": "05c6a15"
}