{
  "transactions": [
    {
      "hash": "0x8dbded7f9a65ca4b9d8cae1525f4062e8f9b7e3799104300f545526ab5b760b7",
      "transactionType": "CALL",
      "contractName": null,
      "contractAddress": "0x189628B9f790D9E519Fb0D302aDA2949786983d7",
      "function": "write(uint256,bytes32)",
      "arguments": [
        "73260345122573571097538219666442874894683432363450978443217705930984513990703",
        "0x00000000000000000000000085b0ec57a96b8b1fc48bf70d1fb9a6b4bac5c0df"
      ],
      "transaction": {
        "type": "0x02",
        "from": "0x85b0ec57a96b8b1fc48bf70d1fb9a6b4bac5c0df",
        "to": "0x189628b9f790d9e519fb0d302ada2949786983d7",
        "gas": "0xf126",
        "value": "0x0",
        "data": "0xd5614ab7a1f7e2cb4d240aea871e1b0e6f4bb7fd5b9570514d55dac1374df1c84489f02f00000000000000000000000085b0ec57a96b8b1fc48bf70d1fb9a6b4bac5c0df",
        "nonce": "0x3",
        "accessList": []
      },
      "additionalContracts": [],
      "isFixedGasLimit": false
    }
  ],
  "receipts": [],
  "libraries": [],
  "pending": [
    "0x8dbded7f9a65ca4b9d8cae1525f4062e8f9b7e3799104300f545526ab5b760b7"
  ],
  "returns": {},
  "timestamp": 1707864927,
  "chain": 11155111,
  "multi": false,
  "commit": "88b09d0"
}