{
  "transactions": [
    {
      "hash": "0x946864a9e7ecd05eaf22ee3c8edb30883bfe5218e06045870d9264c09fbb2e4b",
      "transactionType": "CALL",
      "contractName": null,
      "contractAddress": "0xB9747aFBe9462121A87DA796799981AE2A79b8a9",
      "function": "write(uint256,bytes32)",
      "arguments": [
        "9",
        "0x00000000000000000000000085b0ec57a96b8b1fc48bf70d1fb9a6b4bac5c0df"
      ],
      "transaction": {
        "type": "0x02",
        "from": "0x85b0ec57a96b8b1fc48bf70d1fb9a6b4bac5c0df",
        "to": "0xb9747afbe9462121a87da796799981ae2a79b8a9",
        "gas": "0xfd35",
        "value": "0x0",
        "data": "0xd5614ab7000000000000000000000000000000000000000000000000000000000000000900000000000000000000000085b0ec57a96b8b1fc48bf70d1fb9a6b4bac5c0df",
        "nonce": "0x12",
        "accessList": []
      },
      "additionalContracts": [],
      "isFixedGasLimit": false
    }
  ],
  "receipts": [],
  "libraries": [],
  "pending": [
    "0x946864a9e7ecd05eaf22ee3c8edb30883bfe5218e06045870d9264c09fbb2e4b"
  ],
  "returns": {},
  "timestamp": 1707932073,
  "chain": 11155111,
  "multi": false,
  "commit": "4ed5d68"
}