{
  "transactions": [
    {
      "hash": "0x946864a9e7ecd05eaf22ee3c8edb30883bfe5218e06045870d9264c09fbb2e4b",
      "transactionType": "CALL",
      "contractName": null,
      "contractAddress": "0xB9747aFBe9462121A87DA796799981AE2A79b8a9",
      "function": "write(uint256,bytes32)",
      "arguments": [
        "9",
        "0x00000000000000000000000085b0ec57a96b8b1fc48bf70d1fb9a6b4bac5c0df"
      ],
      "transaction": {
        "type": "0x02",
        "from": "0x85b0ec57a96b8b1fc48bf70d1fb9a6b4bac5c0df",
        "to": "0xb9747afbe9462121a87da796799981ae2a79b8a9",
        "gas": "0xfd35",
        "value": "0x0",
        "data": "0xd5614ab7000000000000000000000000000000000000000000000000000000000000000900000000000000000000000085b0ec57a96b8b1fc48bf70d1fb9a6b4bac5c0df",
        "nonce": "0x12",
        "accessList": []
      },
      "additionalContracts": [],
      "isFixedGasLimit": false
    }
  ],
  "receipts": [
    {
      "transactionHash": "0x946864a9e7ecd05eaf22ee3c8edb30883bfe5218e06045870d9264c09fbb2e4b",
      "transactionIndex": "0x10",
      "blockHash": "0x6a7067bdbdaa09f91e42560dc18267cb3d63f614e66ae7b24842c5367e5647b7",
      "blockNumber": "0x50b1f4",
      "from": "0x85B0ec57a96b8B1fc48Bf70D1Fb9A6b4BAC5c0df",
      "to": "0xB9747aFBe9462121A87DA796799981AE2A79b8a9",
      "cumulativeGasUsed": "0xea4aa",
      "gasUsed": "0xad23",
      "contractAddress": null,
      "logs": [],
      "status": "0x1",
      "logsBloom": "0x00000000000000000000000000000000000000000000000000000000000000000000000000000000000000000000000000000000000000000000000000000000000000000000000000000000000000000000000000000000000000000000000000000000000000000000000000000000000000000000000000000000000000000000000000000000000000000000000000000000000000000000000000000000000000000000000000000000000000000000000000000000000000000000000000000000000000000000000000000000000000000000000000000000000000000000000000000000000000000000000000000000000000000000000000000000",
      "type": "0x2",
      "effectiveGasPrice": "0xb9cef0b0"
    }
  ],
  "libraries": [],
  "pending": [],
  "returns": {},
  "timestamp": 1707932087,
  "chain": 11155111,
  "multi": false,
  "commit": "4ed5d68"
}